S01800006275696C642F6D6963617A2F6D61696E2E73726563E5
S11300000C9458000C94DD120C94D3120C94C91265
S11300100C94BF120C94B5120C94AB120C9467128E
S11300200C94A1120C9477000C9477000C94261174
S11300300C9489100C941B110C944A120C941910F2
S11300400C9461100C94E7120C9477000C947700D4
S11300500C9477000C9477000C9477000C94770040
S11300600C9410110C9477000C9477000C94770086
S11300700C9477000C9477000C9477000C94770020
S11300800C9477000C9477000C947700D70A1F0B1C
S1130090CF0B310C360C830C9A0CA00CE40CFE0D27
S11300A0170E290E810FB40FE40F00081C1814104A
S11300B011241FBECFEFD0E1DEBFCDBF11E0A0E021
S11300C0B1E0EAE0FBE200E00BBF02C007900D9252
S11300D0A231B107D9F722E0A2E1B1E001C01D923B
S11300E0A434B207E1F70E944A130C9483150C94CC
S11300F00000C0980895B89A0895C09A089587B7E3
S11301008F7E87BF089586B70895809134028F3F0C
S113011069F0E82FF0E0E45CFE4F908190933402A4
S11301209F3F11F4909342029FEF9083089583B709
S113013083BF00B600FCFDCF0895FC01218132810C
S1130140F901EF2FFF27E695E695E370FF27E35FBC
S1130150FE4F408124E0329F212D33271124F901E1
S1130160E35FFE4F2081022E000C330B240F311D60
S113017047FD3A952A5F3F4F820F931F08959FB71B
S1130180F894E82FF0E0E45CFE4F20812F3F99F4CF
S1130190E09142028E1779F0209134022F3F19F436
S11301A08093340204C0F0E0E45CFE4F80838093CB
S11301B0420280E001C085E09FBF089580E88093FB
S11301C03A011092540110923702109233021092A5
S11301D0510108952F923F924F925F926F927F92B6
S11301E08F929F92AF92BF92CF92DF92EF92FF9243
S11301F00F931F9380915A0190915B01A0915C0130
S1130200B0915D011C012D019C01A20160E070E030
S113021080E090E003E00E942F1551016201E12C7F
S1130220F12C00E010E00E94661559016A017B017F
S1130230E82F192F03E00E942F150E2F0E94661538
S113024059016A017B01E82F192F03E00E942F1541
S11302500E2F0E94661559016A017B01E82F192FA0
S113026003E00E942F150E2F0E94661559016A01A2
S11302707B01E82F192F03E00E942F150E2F0E94F7
S1130280661501E00E942F1549015A012401350128
S1130290769467945794479400E20E944A15490162
S11302A05A01C301B201680D791D8A1D9B1D97FF78
S11302B009C0DC01CB01BF77BC01CD016F5F7F4F6B
S11302C08F4F9F4F60935A0170935B0180935C0141
S11302D090935D011F910F91FF90EF90DF90CF906D
S11302E0BF90AF909F908F907F906F905F904F9052
S11302F03F902F900895FF920F931F93CF93DF9316
S1130300FFB6F894C0917B01D0917C010CB51DB56A
S11303100E94830082FF03C021960CB51DB5FFBE69
S1130320CE01A0E0B0E0DC0199278827A80160E0B5
S113033070E08C019D01042B152B262B372BC90152
S1130340B801DF91CF911F910F91FF900895CF9243
S1130350DF92EF92FF920E947B016B017C018091FE
S1130360640190916501A0916601B091670140918B
S11303705F01509160016091610170916201480FC9
S1130380591F6A1F7B1FC816D906EA06FB0630F000
S1130390481759076A077B0758F005C048175907DB
S11303A06A077B0770F5C416D506E606F70648F516
S11303B0DB01CA018C199D09AE09BF09813020E80F
S11303C09207A105B10500F1B701A60150586F4F7E
S11303D07F4F40936401509365016093660170936D
S11303E067019058A109B10980935F01909360015E
S11303F0A0936101B093620180E090E8A0E0B0E0D6
S113040013C080E090E0DC014093640150936501E7
S1130410609366017093670110925F01109260010E
S113042010926101109262012CB53DB52D5F3F4FD2
S1130430A9014C195D094817590718F49601280FAA
S1130440391F2115310511F421E030E02150310923
S11304503BBD2ABD80E186BF87B7806187BFFF901F
S1130460EF90DF90CF900895CF92DF92EF92FF92BA
S1130470CF936B017C010E947B01CFB7F89460930A
S11304806401709365018093660190936701C09243
S11304905F01D0926001E0926101F09262010E94DA
S11304A0A701CFBFCF91FF90EF90DF90CF90089539
S11304B00F931F93CF93DF93CFB7F894D2B70E94D3
S11304C0830040912401509125016091260170918F
S11304D0270181FF13C091B782B74F5F5F4F6F4F02
S11304E07F4F490F511D611D711D8A019B01080F2A
S11304F0111D211D311DC901B80106C0CB01BA016E
S11305006D0F711D811D911DCFBFDF91CF911F9183
S11305100F910895CF92DF92EF92FF920F931F9362
S1130520CF93CFB7F894E1B6F2B60E948300EF14EC
S113053011F081FF02C0CFBF77C080917601811195
S113054002C086EE3FC00E945802C0909201D09033
S11305509301E0909401F09095010091360110917F
S113056037012091380130913901AB01BC014C199C
S11305705D096E097F09401751076207730728F068
S11305801092760186EE21E01EC0D701C601800FCD
S1130590911FA21FB31F4091240150912501609126
S11305A0260170912701841B950BA60BB70B873E80
S11305B09105A105B10528F682309105A105B10583
S11305C008F482E020E09FEF980F00B601FCFDCF15
S11305D032B7931301C0982F409124015091250103
S11305E060912601709127016A017B018FEFC81A7F
S11305F0D80AE80AF80AC90ED11CE11CF11CC41679
S1130600D506E606F70610F4942F909591BFCFBF58
S1130610222351F080E0CF911F910F91FF90EF9032
S1130620DF90CF900C94BF00CF911F910F91FF905A
S1130630EF90DF90CF900895CF93DF93CDB7DEB7DF
S113064028970FB6F894DEBF0FBECDBF20E032E18D
S11306504DE65CE46FE470E080910C0190910B0135
S113066028960FB6F894DEBF0FBECDBFDF91CF91B1
S11306700895CF93CFB7F8940E94EA00CB0166E4C3
S113068070E00E940B15BC01655F7F4F70934002C0
S113069060933F0280E090E00E943402CFBFCF918C
S11306A008959FB7F89480931D019FBF84E00C9434
S11306B0BF009FB7F894E82FF0E0EA56FE4F808120
S11306C0811104C081E0808380E001C081E09FBF8C
S11306D0089587B78F7D87BF80E286BF8EB58F7BF5
S11306E08EBD87B7806287BF80E008959FB7F89476
S11306F081E020919601211180E09FBF08956E9AB8
S11307008FB9779BFECF8FB10895CF92DF92EF928E
S1130710FF920F931F93CF93DF934FB7F8940091F9
S11307203D0210913E02C0908F01D0909001C09183
S11307307701D09178019E01265F3F4F809121017E
S1130740909122012817390708F4C9014FBF7C0191
S113075021E0E21AF108CE15DF05A0F40115110518
S113076029F0F801EC0FFD1F808101C080E00E9498
S11307707F03C114D10421F0F601EC0FFD1F808327
S11307802196E9CF6F9A8FB7F8940115110531F0CE
S1130790F801EC0FFD1F90819FB901C01FB8D093E1
S11307A07801C09377018FBF80E0DF91CF911F91D3
S11307B00F91FF90EF90DF90CF9008959C019FB729
S11307C0F894509322014093210130933E022093E8
S11307D03D027093900160938F0110927801109202
S11307E077019FBF452B19F08FB10C94850389E0E5
S11307F00E94BF0080E00895CF93DF93D82FCFB736
S1130800F8940E947603811106C0CFBF8D2FDF912B
S1130810CF910C947F03CFBF80E0DF91CF910895F7
S113082089E00C94FC030F931F93CF93DF938C0107
S1130830D62FCFB7F8940E947603882319F0CFBF40
S113084080E012C0CFBF8FE790E090936D0180935A
S11308506C010E947F03C82F4D2F50E0B80180E047
S113086090E00E94DE038C2FDF91CF911F910F91B6
S113087008950E94790061E080911F019091200108
S11308800C941304BF92CF92DF92EF92FF920F93D6
S11308901F93CF93DF931F92CDB7DEB78C017A01FC
S11308A0B22EDFB6F89469830E94760369818823A7
S11308B019F0DFBE80E01EC0DFBE060F111D802FC1
S11308C080680E947F03C82EC80196958795807C16
S11308D00E947F03DB2C0B2D10E0DD2051F0F8018A
S11308E0ED19F109EE0DFF1D80810E947F03DA945A
S11308F0F4CF8C2D0F90DF91CF911F910F91FF902A
S1130900EF90DF90CF90BF900895CF93DF93CDB752
S1130910DEB72C970FB6F894DEBF0FBECDBF9FB7DE
S1130920F89488E0E0EDF1E0DE01119601900D927B
S11309308A95E1F7209155018091560129878A878C
S113094020916801809169012B878C879FBF2CE0DF
S1130950AE014F5F5F4F60E080E691E00E94420489
S11309602C960FB6F894DEBF0FBECDBFDF91CF91AA
S113097008950F931F93CF93DF93082FD62F172F2C
S1130980CFB7F8940E94760381110EC0CFBF802F99
S11309900E947F03812F0E947F038D2FDF91CF91CF
S11309A01F910F910C947F03CFBF80E0DF91CF9113
S11309B01F910F9108959FB7F8948091D8019FBF1C
S11309C090E00B9725E0289FB001299F700D11241A
S11309D06B597E4F706488E10C94B904CF93CFB700
S11309E0F89480915001882329F021E080913C0201
S11309F0811101C020E080E090E0922F990F990FBF
S1130A00990F20915701222351F031E020E04091C9
S1130A109B01411101C030E0632F722F02C060E0DE
S1130A2070E024E0660F771F2A95E1F7826E9262E8
S1130A30682B792B81E10E94B904CFBFCF9108952F
S1130A400F931F93CF93DF93009158011091590195
S1130A50F801C2A5C11101C0CFE10E9479008091C3
S1130A604F01C81739F06C2F70E0606E706885E133
S1130A700E94B904C0934F01F801C081DFB7F89414
S1130A800E947603882331F0DFBFDF91CF911F915D
S1130A900F910895DFBF8EE390E090936D018093F2
S1130AA06C010E947F03C1504C2F50E060E070E065
S1130AB0C801DF91CF911F910F910C94DE036E98C2
S1130AC0BA9ABB98B99A0E947B006C9A6F986B98FB
S1130AD06A986E9A709A8DB18C7F8DB90895CF9370
S1130AE0DF93D82FCFB7F89480E00E94590388236E
S1130AF019F0CFBF85E021C09091070180911801C2
S1130B00911102C0823069F0811110C082E080939B
S1130B101801109207010E945F050E947B000E9449
S1130B207900D0930A0180E0CFBF07C08FB7F89453
S1130B30109296018FBF81E0F7CFDF91CF91089596
S1130B40CF93C0911901CC2311F0C1E04AC0809128
S1130B500A018F3FD1F70E9476038823B1F381E025
S1130B608093D90180913B0181111092D901809128
S1130B70D901882389F180910701811104C08091F2
S1130B801801823059F180911801823051F5809119
S1130B900701811126C0809109018F3FB1F0E82F30
S1130BA0F0E0ED59FE4F9081909309019F3F11F4BD
S1130BB0909308019FEF90838093070181E08093D5
S1130BC018018AE00E94BF0004C0809307011092BC
S1130BD018016E98C0E005C0C5E003C00E947D0006
S1130BE0D2CF8C2FCF910895CF93C82F81E090E07E
S1130BF0909317018093160110923B010E94A00567
S1130C008C2FCF910C94510387B78F7D87BF80E2DF
S1130C1086BF8EB580648EBD87B7806287BF80E053
S1130C200895CF93DF93C82FDFB7F89480E00E9434
S1130C30590381110CC0C0930A019091070180915E
S1130C401801911110C0823071F488E014C081E061
S1130C5090E001C0880FCA95EAF790911901892B99
S1130C608093190120C0811109C081E0809318018B
S1130C70109207018AE00E94BF0015C080916301B1
S1130C808F3F89F4E0910801EE2369F08091090116
S1130C908F3F19F41092090104C0F0E0ED59FE4FA2
S1130CA0108210920801DFBF80E0DF91CF91089598
S1130CB0CF9383E00E946F05C82F882319F083E047
S1130CC00E9411068C2FCF9108951F93CF93DF9329
S1130CD0EC011FB7F8940E949D002FE3FC012083D0
S1130CE01FBF10923A021092390282E00E94590307
S1130CF0811165C08091DA0191E0980F9093DA0137
S1130D008B838FB7F8942FB7F894909197012FBFE6
S1130D10923041F08FBF8FB7F894109298018FBF33
S1130D2081E050C09FB7F89424E0209397019FBFBF
S1130D30D0937301C09372018FBF29813A81A901B5
S1130D4040725C7C80E090E0952F20723327216410
S1130D50822B932B89839A831CA618A619A619AAF9
S1130D6018AA1FA680E88EA791E090939A0140915B
S1130D707201509173018FB7F8942091160130914C
S1130D8017012830310519F02130310511F08FBFDA
S1130D9018C022E030E0309317012093160190939D
S1130DA043025093590140935801109223018FBF7D
S1130DB00E945806811105C00E94200502C085E0EA
S1130DC001C080E0DF91CF911F910895CF93FA0184
S1130DD02D3180F58387668377833FB7F8949091AC
S1130DE05501809156013FBF948385833FB7F894A2
S1130DF090910501809106013FBF908781873281E0
S1130E00818190E080649868932B818392838DE044
S1130E10820F8083C0910301CC2381F010920301DF
S1130E20CA010E946506882339F09FEF909303015D
S1130E30C82F18C0C2E016C0C0E014C030E0309320
S1130E4071012093700150931301409312018CE0BF
S1130E500E94BF0080910301882319F010925E0163
S1130E6001C0C9E08C2FCF91089510920001E09148
S1130E707901F0917A013097A9F08091380280FDD0
S1130E8011C080910001811111C020812D50668113
S1130E907781AF0183850E94E606882339F08EE0CE
S1130EA00C94BF0081E080930001EBCF0895CF93B1
S1130EB0DF9320910001211112C0C0917901D091DA
S1130EC07A01C817D90759F410927A01109279015E
S1130ED00E943507CC59D14011F410921E01DF91C4
S1130EE0CF910895CF92DF92EF92FF920F931F93C9
S1130EF08B019C01E0918501E1FF1BC080917D0184
S1130F0090917E01A0917F01B09180014091810177
S1130F10509182016091830170918401680179018B
S1130F20C81AD90AEA0AFB0AC416D506E606F70661
S1130F3008F5E0918E01E1FF86C0809186019091D1
S1130F408701A0918801B091890140918A01509153
S1130F508B0160918C0170918D01081B190B2A0B78
S1130F603B0B041715072607370708F46CC021E06C
S1130F7030E002C020E030E0E0FF0CC089E0829F56
S1130F80F001839FF00D1124EB57FE4F80818D7F7C
S1130F90808310C019E0129FF001139FF00D1124FB
S1130FA0E358FE4F840F951FA61FB71F80839183BC
S1130FB0A283B383211147C080917401909175017C
S1130FC00196909375018093740120911E01211163
S1130FD03AC030910B0120910C013093A901209368
S1130FE0A8018093AB019093AA018FEF8093A20193
S1130FF08093A30186E08093A70180917901909169
S11310007A01892B01F58CE991E090937A01809320
S1131010790181E180939C01809100018823E1F0B2
S11310201092000124E04CE951E06FEF7FEF86E07D
S11310300E94E606882381F081E0809300011092EB
S11310407A011092790181E01F910F91FF90EF9046
S1131050DF90CF900C94BF0081E080931E01F3CF0A
S113106082E090E090934C0180934B0181E0809367
S1131070540180910A01843011F40C94390484E001
S11310800E946F058823C9F384E00C941106CF9362
S1131090DF93DFB7F89490910A01981719F0DFBF36
S11310A0C1E035C08FEF80930A01C0911901CC23B0
S11310B029F080E025E04C2F50E00BC08FB7F89466
S11310C0109296018FBF0E94A005DFBF20C081E06F
S11310D0890F622F0E94FF14692FFA01092E02C0A2
S11310E0F595E7950A94E2F7E0FFF1CF90930A01B2
S11310F081E090E001C0880F6A95EAF78095C823E3
S1131100C093190188E00E94BF00DFBFC0E08C2FAC
S1131110DF91CF91089583E00C944708CF93DF9338
S1131120DFB7F8948091160190911701089799F40C
S11311300E9410040E948B080E947D0081E090E0D0
S1131140909317018093160183E00E945103DFBF3F
S1131150DF91CF9108950E94790080914302882302
S113116011F085E001C084E00E94FC0383FD21C0EE
S113117080E00E94FC0383FF1CC0C0E085E090E097
S113118090931701809316010E947D00DFBFCC234A
S113119041F0109223010E948B08DF91CF910C94AF
S11311A0390360E471E080E090E0DF91CF910C942A
S11311B03402C1E083E090E0E3CF84E00C9447087C
S11311C0CF93CFB7F89480914B0190914C01892B28
S11311D0D1F01092540180915101882311F0B799F4
S11311E004C00E9908C0882319F0815080935101DE
S11311F00E9430080AC081E090E090934C018093F3
S11312004B01109251010E94DD08CFBFCF91089588
S11312100E94DE000E947D000E94790088E00E9406
S1131220FC0388E00E94FC030E947D000E94DD080C
S11312300C94E0080F931F93CF93DF938C0180915C
S11312406C0186FF3DC18F7B8F3309F08DC1C09146
S11312501F01D0912001888180934D0120914B0181
S113126030914C012530310509F446C02630310552
S113127009F487C02230310509F018C125E030E0B7
S113128030934C0120934B0190913A01482F50E048
S1131290292F30E04217530734F0DF91CF911F918B
S11312A00F910C940809B79906C00E9904C0915087
S11312B0981B90933A018A3280F78823B1F0BE01DB
S11312C06F5F7F4F883018F047E050E006C086E03B
S11312D090E090934C0180934B0180E090E0DF918B
S11312E0CF911F910F910C94DE03109254010E9430
S11312F07D000E94DD0832C186E090E090934C01AD
S113130080934B01809157018E01085F1F4F882302
S113131091F180919B0181112EC0898185FF2BC0A1
S11313202E813F814FB7F8948091680190916901B3
S11313304FBF2817390721F08E819F810196D9F478
S113134089819A81877099270197A9F40E947D0069
S11313500E9479008AE00E94FC030E947D000E94A2
S1131360790060914D016750C801DF91CF911F91C1
S11313700F910C94130440914D01475050E0B80173
S1131380ACCF0E947D0080915101811102C00E9466
S1131390DD088091510130914D01882311F0B799F6
S11313A008C00E9B06C020913302222311F03B306B
S11313B058F4E0911F01F091200115A611AA10AA7A
S11313C017A680E886A72FC080913702213091F4B8
S11313D094E0899FF0011124E152FE4F6081518114
S11313E042819381E0911F01F091200161AB50ABE8
S11313F047A796A790E001968770992780933702B4
S1131400215020933302222371F0E0911F01F091C7
S1131410200115A611AA10AA17A680E886A7109283
S1131420370210923302FE01E30FF11D808187FF22
S113143095C0012B09F492C089818770823061F5CF
S1131440E0915801F0915901309709F487C08091D7
S1131450160190911701079709F080C0C0911F01F0
S1131460D091200193818B81981378C00E947F00D2
S1131470E0915801F0915901888191E094A7C80F37
S1131480D11DDE0111978C9180A788818F7781A768
S113149080E00E94F40562C0813009F05FC08BE0F7
S11314A0DF91CF911F910F910C94BF0010925401C2
S11314B00E947D00DF91CF911F910F910C94DD0864
S11314C08E3309F051C00E947D00809116019091E5
S11314D017010897A9F40E9479000E9410040E9441
S11314E07D000E948B0881E090E090931701809327
S11314F0160183E0DF91CF911F910F910C9451035A
S11315008091430281110CC084E090E09093170114
S113151080931601DF91CF911F910F910C948E0847
S11315200E948B0883E090E090931701809316014A
S11315300E94EA00CB0166E371E00E940B15BC0136
S1131540655F7F4F709335016093340180E090E0D4
S1131550DF91CF911F910F910C943402DF91CF91C1
S11315601F910F910C94E008DF91CF911F910F917F
S113157008958F929F92AF92BF92CF92DF92EF9293
S1131580FF920F931F93CF93DF93CDB7DEB7A0974E
S11315900FB6F894DEBF0FBECDBF90E08F3091053B
S11315A008F02FC5FC01EA5BFF4F0C941F158091D6
S11315B04E01811141C04091DB015091DC016091E9
S11315C0DD017091DE012FB7F894C0909201D090A4
S11315D09301E0909401F0909501809136019091EF
S11315E03701A0913801B09139018C0D9D1DAE1DBC
S11315F0BF1D2FBF4093DB015093DC016093DD01DD
S11316007093DE0110924E012FB7F89431E03093BD
S113161076018093920190939301A0939401B093E7
S113162095014093360150933701609338017093CC
S113163039012FBF0E948A020E94580268C00E948A
S113164058022FB7F894109276012FBF209185018C
S113165021FF28C000917D0110917E0120917F011E
S1131660309180016B017C01C01AD10AE20AF30AAD
S113167097018601C0908101D0908201E09083019E
S1131680F090840146015701801A910AA20AB30A14
S1131690E1E02FEF82169206A2062FE7B20649F484
S11316A0E0E007C0E0E088248A94982CA82C5FE747
S11316B0B52E20918E0121FF22C000918601109148
S11316C0870120918801309189016B017C01C01A46
S11316D0D10AE20AF30A00918A0110918B01209148
S11316E08C0130918D010C191D092E093F09081533
S11316F019052A053B051CF44801590103C0EE23D2
S113170009F47FC4181419041A041B04A4F0A09645
S11317100FB6F894DEBF0FBECDBFDF91CF911F91FE
S11317200F91FF90EF90DF90CF90BF90AF909F907C
S11317308F900C9472078092DB019092DC01A0924E
S1131740DD01B092DE0121E020934E013FB7F89411
S11317502093760160939201709393018093940196
S1131760909395018092360190923701A0923801AE
S1131770B09239013FBFA0960FB6F894DEBF0FBEFA
S1131780CDBFDF91CF911F910F91FF90EF90DF902C
S1131790CF90BF90AF909F908F900C948A02FFB629
S11317A0F8940E94040601E010E0109317010093DE
S11317B016011092150110923B0110924F01FFBEC9
S11317C0FFB6F8940E94DE0010934C0100934B0185
S11317D01092540189B78F7B89BF80E488BF8AB790
S11317E080628ABF8AB78F7E8ABF89B7806489BFC7
S11317F0FFBE1FB7F89480911B0190911C010497C0
S113180019F483E00E94FC031FBF1FB7F8940E94E1
S11318107D0080E00E9447081FBF8FB7F89492E0D4
S1131820909397018FBF0E94580260937D0170933B
S11318307E0180937F01909380018AEF90E0A0E085
S1131840B0E08093810190938201A0938301B093CF
S11318508401809185018E7F82608093850181E07F
S11318609FC08FB7F8941092970168C08FB7F8940F
S11318708FBF9FB7F894809197019FBF833049F53C
S11318801FB7F89410921701109216010E947F005E
S113189087B78F7D87BF0E948B080E947D001FBF82
S11318A01FB7F89410924C0110924B010E94DE0075
S11318B00E947D0089B78F7B89BF1FBF10921C01D6
S11318C010921B01DE98DD98DE9A83E00E94BF002F
S11318D006C08FB7F89492E0909397018FBF8091E0
S11318E07201909173012FB7F894109298012FBF51
S11318F02091390230913A02232B09F082C32FEF51
S11319002093030119C31FB7F894809141028111F8
S1131910D5C081E08093410280911B0190911C010C
S1131920049721F481E00E941106C8C086E00E9459
S1131930BF00C4C08FB7F894109241028FBF61C337
S11319408FB7F89490911A019111F8CF8FBF10B30B
S113195016FB112710F980916A0190916B01981779
S1131960E1F081131AC084E090E090931C0180930D
S11319701B018FB7F89491E090931A018FBF60E038
S113198070E08DE10E94B9040E9485040E947D00EC
S11319900E94790082E00E94BF0010936B0187E0EF
S11319A0A0960FB6F894DEBF0FBECDBFDF91CF91E6
S11319B01F910F91FF90EF90DF90CF90BF90AF9069
S11319C09F908F900C94BF009FB7F89480910A0168
S11319D09FBF823009F474C0F0F48823B1F18130E0
S11319E009F00FC30E94790086E00E94FC030E9464
S11319F0DB040E94EE040E9485040E947D000E9484
S1131A00790083E00E94FC030E947D0081E00E9433
S1131A10470886E0C5CF833009F47DC0843009F0DF
S1131A20F0C2A0960FB6F894DEBF0FBECDBFDF9113
S1131A30CF911F910F91FF90EF90DF90CF90BF90C7
S1131A40AF909F908F900C9439040E9479001FB737
S1131A50F89480911B0190911C01029779F583E021
S1131A6090E090931C0180931B0168E170E08DE18C
S1131A700E94B90481E080936A0110921A0180B334
S1131A8086FB882780F980936B0187E00E94BF0062
S1131A9081E00E94FC036FE772E08CE10E94B904CC
S1131AA00E94DB040E94EE0466E57AE287E10E946C
S1131AB0B9046FEF70E885E10E94B9041FBFA1C2A9
S1131AC00E9479001FB7F8940E947603882311F0CE
S1131AD01FBF0AC01FBF83E50E947F0380E00E94EE
S1131AE07F0380E00E947F030E947D0082E0A09635
S1131AF00FB6F894DEBF0FBECDBFDF91CF911F911B
S1131B000F91FF90EF90DF90CF90BF90AF909F9098
S1131B108F900C9447082FB7F894809116019091F8
S1131B2017012FBF992784309105D1F08830910592
S1131B3059F1029709F04EC0A0960FB6F894DEBF93
S1131B400FBECDBFDF91CF911F910F91FF90EF900A
S1131B50DF90CF90BF90AF909F908F900C94200512
S1131B60A0960FB6F894DEBF0FBECDBFDF91CF9124
S1131B701F910F91FF90EF90DF90CF90BF90AF90A7
S1131B809F908F900C948E080E9479000E941004FC
S1131B900E947D000E948B088FB7F89421E030E00A
S1131BA030931701209316018FBF83E0A0960FB6E0
S1131BB0F894DEBF0FBECDBFDF91CF911F910F917F
S1131BC0FF90EF90DF90CF90BF90AF909F908F9059
S1131BD00C945103A0960FB6F894DEBF0FBECDBF90
S1131BE0DF91CF911F910F91FF90EF90DF90CF90F5
S1131BF0BF90AF909F908F900C948B081FB7F89470
S1131C0080918F01909190011092900110928F0118
S1131C1010923E0210923D02109222011092210174
S1131C2010927801109277010E941A0947CF1FB7CA
S1131C30F89482E0809318010E945F051FBF809191
S1131C4007018111DEC10E947B000E94790088E0B7
S1131C50A7CE80911F0190912001DC01FC90FC0132
S1131C60EF0DF11D2081221F2227221F9B962C930A
S1131C709B9720812F7799962C9399973197208160
S1131C8098962C93989712964C913FB7F89420917C
S1131C9050013FBF211105C0BCE0BF1508F018C1B9
S1131CA05EC0242F2695269530E0237033272230FA
S1131CB03105C1F4FC01468157816FB7F894209136
S1131CC06801309169016FBF4217530729F321E07E
S1131CD030E086819781019611F020E030E0232BDB
S1131CE0D9F6F6C02330310509F0F2C028E0E0ED62
S1131CF0F1E0DE01119601900D922A95E1F728E0BA
S1131D00FE013196DE01519601900D922A95E1F77C
S1131D1028E0FE017196DE01199601900D922A9534
S1131D20E1F728E0FE013996DE01519601900D920B
S1131D302A95E1F728E0FE017196DE01599601909B
S1131D400D922A95E1F748E050E0BE01675E7F4FAF
S1131D5006960E946F15892B09F49ECFB9C0009195
S1131D601F0110912001F801818192819C01232F90
S1131D7033272695269523703327369684E0989F3B
S1131D80812D99271124039719F042E050E002C0F5
S1131D9048E050E02330310519F082E090E002C0C1
S1131DA088E090E0E80FF91F20E030E0BF01819166
S1131DB0280F311DCF01861B970B84179507BCF3A1
S1131DC0D80113965C918FEF80933B026FB7F89420
S1131DD090913B02E8E2F1E080E040E0A081B18133
S1131DE0A217B30751F47281571305C041119093A0
S1131DF03B026FBF69C0982F41E033968F5F8430F8
S1131E0069F7411190933B026FBFE0913B024FB7DA
S1131E10F89480911401EF3F11F0E81303C0E82F08
S1131E2091E001C090E0F0E0BF01660F771FE60F7C
S1131E30F71FE85DFE4F318320835283992321F0FD
S1131E408F5F8370809314014FBFEFB6F894C8017D
S1131E500E949D00FC018081EFBED8019B969C915D
S1131E609B97992389F18F3379F516962D913C919F
S1131E7017974FB7F89480910501909106014FBFD1
S1131E802817390729F0F801868197810196E1F432
S1131E90D8011B968C918630B9F4B1E1FB1214C0C1
S1131EA0F801868597859827892780FF02C0DA98EC
S1131EB001C0DA9A81FF02C0D99801C0D99A82FF81
S1131EC002C0D89801C0D89A1093200100931F0132
S1131ED08FB7F894109254018FBFA0960FB6F89460
S1131EE0DEBF0FBECDBFDF91CF911F910F91FF9049
S1131EF0EF90DF90CF90BF90AF909F908F900C9415
S1131F00E00880915E0190910301891709F479C07A
S1131F1080930301811124C08091120190911301D7
S1131F200E946506882309F46CC08FEF8093030137
S1131F308091120190911301A0960FB6F894DEBF20
S1131F400FBECDBFDF91CF911F910F91FF90EF9006
S1131F50DF90CF90BF90AF909F908F900C945707D5
S1131F608FEF809303014DC020913802222309F49E
S1131F7048C0B0911E01E9E7F1E0A0E030E090E054
S1131F8081E0582F550FBF016E5F7F4F422F4823CA
S1131F9071F00081118111821082809528239111A2
S1131FA005C00C59114041F5A1E0B0E031E0852FA6
S1131FB09F5FFB01983029F7311120933802AA233F
S1131FC001F1B0931E011DC010910001E12FF0E05A
S1131FD0EE0FFF1FE758FE4FE080F1801182108260
S1131FE00E94350711110DC02CE9E21621E0F2061A
S1131FF041F410921E0105C0852FFB0131E091E0F0
S1132000C0CFA0960FB6F894DEBF0FBECDBFDF9150
S1132010CF911F910F91FF90EF90DF90CF90BF90E1
S1132020AF909F908F9008958FB7F89408958FBFC5
S113203008951F920F920FB60F9211240BB60F92B0
S11320400F931F932F933F934F935F936F937F93BC
S11320508F939F93AF93BF93EF93FF930E94970047
S113206081B790E00196409124015091250160913F
S11320702601709127018A019B01080F191F211D58
S1132080311D0093240110932501209326013093E0
S1132090270178940E948A02FF91EF91BF91AF913A
S11320A09F918F917F916F915F914F913F912F916C
S11320B01F910F910F900BBE0F900FBE0F901F90AA
S11320C018951F920F920FB60F9211240BB60F9210
S11320D02F933F934F935F936F937F938F939F932C
S11320E0AF93BF93EF93FF930E949700FF91EF91FB
S11320F0BF91AF919F918F917F916F915F914F911C
S11321003F912F910F900BBE0F900FBE0F901F9019
S1132110189578941F920F920FB60F9211240BB654
S11321200F922F933F934F935F936F937F938F936C
S11321309F93AF93BF93CF93EF93FF930E947F003E
S1132140CFB7F89480915F0190916001A0916101F3
S1132150B0916201892B8A2B8B2B09F04AC08091A4
S11321601601909117018530910541F130F48330C7
S1132170910549F00497C9F02AC087309105E1F030
S1132180089799F024C0869B0DC084E090E090935A
S113219017018093160167E070E080E090E00E94F0
S11321A0340215C00E94390312C00E9458068111DE
S11321B00EC00E948E080BC080E007C00E9410046D
S11321C00E9404060E948B0887E00E94F405809117
S11321D01B0190911C01019771F482E090E09093AF
S11321E01C0180931B01DE98DE9A80E00E94110698
S11321F002C00E94A701CFBFFF91EF91CF91BF9181
S1132200AF919F918F917F916F915F914F913F918A
S11322102F910F900BBE0F900FBE0F901F9018952B
S113222078941F920F920FB60F9211240F900FBE45
S11322300F901F90189578941F920F920FB60F92DB
S113224011240F900FBE0F901F90189578941F9231
S11322500F920FB60F9211240BB60F92AF92BF924A
S1132260CF92DF92EF92FF920F931F932F933F939E
S11322704F935F936F937F938F939F93AF93BF938A
S1132280CF93DF93EF93FF9306B517B5BFB6F894DA
S11322900E947B019B01201B310B6B017C01C21A44
S11322A0D30AE108F1088091160190911701853055
S11322B0910521F0069709F45AC076C086E090E0B3
S11322C0909317018093160181E08093530110923B
S11322D015010E946903C0915801D0915901C9AAFE
S11322E0D8AAEFA6FEA68DA5882389F188819BEF45
S11322F0A92EA80ECA0DD11D688179818A819B817E
S11323000E942815DC01CB018C199D09AE09BF0977
S11323108B839A83A983B8830E94790024E0AE0159
S11323206A2D80E090E00E9442040E947D00688152
S113233079818A819B810E942815DC01CB018C0D57
S11323409D1DAE1DBF1D8B839A83A983B883E09125
S11323505801F0915901818185FF03C081E0809388
S11323603B010E948B080E947F00849975C01092E3
S113237053010E940406E0915801F09159018181B2
S113238085FF0DC087E090E09093170180931601BC
S113239060E071E080E090E00E94340203C080E0DD
S11323A00E94F405849B58C08091150181112BC0B3
S11323B080915301811127C081E0809353010E94D1
S11323C06903C0B380913302883088F4E091370206
S11323D0E80FE77094E0E99FF0011124E152FE4F09
S11323E0C082D182E282F3828F5F8093330281E0E4
S11323F08093150110936F0100936E0184992CC092
S1132400C295C17001C0C0E080915301813021F5B3
S1132410109253010E94040610921501C1111CC0B0
S113242080916E0190916F01081B190B0A30110500
S113243098F480913302882319F0815080933302F9
S1132440E0915801F0915901309731F015A611AA85
S113245010AA17A680E886A7BFBEFF91EF91DF916F
S1132460CF91BF91AF919F918F917F916F915F9128
S11324704F913F912F911F910F91FF90EF90DF901B
S1132480CF90BF90AF900F900BBE0F900FBE0F90E8
S11324901F90189578941F920F920FB60F921124E3
S11324A02F938F939F932FB7F89480917B019091F2
S11324B07C01019690937C0180937B012FBF9F91B7
S11324C08F912F910F900FBE0F901F9018951F9210
S11324D00F920FB60F9211240BB60F922F933F93C6
S11324E04F935F936F937F938F939F93AF93BF9318
S11324F0EF93FF9380914B0190914C01019749F424
S113250082E090E090934C0180934B010E9430084C
S113251005C0809151018F5F80935101FF91EF912C
S1132520BF91AF919F918F917F916F915F914F91E7
S11325303F912F910F900BBE0F900FBE0F901F90E5
S113254018951F920F920FB60F9211240F900FBE81
S11325500F901F9018951F920F920FB60F9211248F
S11325600F900FBE0F901F9018951F920F920FB6E9
S11325700F9211240F900FBE0F901F9018951F9269
S11325800F920FB60F9211240F900FBE0F901F9051
S113259018951F920F920FB60F9211240F900FBE31
S11325A00F901F9018951F920F920FB60F9211243F
S11325B00F900FBE0F901F9018951F920F920FB699
S11325C00F9211240F900FBE0F901F9018951F9219
S11325D00F920FB60F9211240BB60F922F933F93C5
S11325E04F935F936F937F938F939F93AF93BF9317
S11325F0EF93FF932FB1E0918F01F0919001309709
S113260039F08091770190917801E80FF91F2083C8
S1132610809177019091780101969093780180934D
S113262077016F9820917701309178018091210191
S1132630909122012817390718F40E94850317C0C6
S113264080918F01909190011092900110928F01CE
S113265010923E0210923D0210922201109221012A
S113266010927801109277012FB10E941A09FF91FC
S1132670EF91BF91AF919F918F917F916F915F91F6
S11326804F913F912F910F900BBE0F900FBE0F9063
S11326901F901895CF93DF93CDB7DEB7A0970FB6F1
S11326A0F894DEBF0FBECDBF1FB7F8944FE050E0E3
S11326B06FEF70E08CE391E00E947C158FEF8093C4
S11326C034028093420281E08EBD88E080BF83E0C3
S11326D083BF4CB55DB58AE72CB53DB524173507E6
S11326E010F0A901F9CF8150E1F792B782B798179A
S11326F0E9F32CB53DB592B782B79817E9F38CB5D9
S11327009DB54096821B930B25E0969587952A9557
S1132710E1F7909336028093350213BE1EBC10BEBF
S113272012BE1DBC1CBC8FEF86BF80937C0080B79B
S11327308770E9F7D29AD19AD09ADA9AD99AD89A24
S113274015BA8FEF84BBD498DC981DBC1CBC87B72A
S1132750846087BF8EB5887F84608EBD0E948500AB
S1132760082F8F3F19F00E94B90AF8CF80935201C5
S11327708FEF9FEF909329018093280110922A01F3
S113278090932C0180932B0110922D0190932F0193
S113279080932E0110923001909332018093310185
S11327A0109233010E94EA006093DA0180910B01D8
S11327B090910C010196A0E0B0E080935A019093AF
S11327C05B01A0935C01B0935D018FEF91E0909366
S11327D0200180931F018E980E947B008C980093A7
S11327E06301109296011092970110929801109231
S11327F099010E947B00D69AD59A2FB7F8948091BC
S11328000501909106012FBF90936901809368019F
S11328100E941C0329873A874B875C876D877E87D4
S11328208F87988B88E0FE013996DE01119601901E
S11328300D928A95E1F788E0FE013196DE01199642
S113284001900D928A95E1F788E0FE013996A0ED9A
S1132850B1E001900D928A95E1F78091040190E036
S113286090935601809355018FE1809391018AE101
S11328708093D8010E941C03298F3A8F4B8F5C8F61
S11328806D8F7E8F8F8F98A388E0FE017996DE018D
S1132890519601900D928A95E1F788E0FE017196B8
S11328A0DE01599601900D928A95E1F788E0FE01C8
S11328B07996A0EDB1E001900D928A95E1F7E8EDEB
S11328C0F1E0A0EDB1E084ED91E02C9132913D93E3
S11328D020838E179F07C9F781E0809350011092DF
S11328E03C028093570110929B0180B7886080BF9F
S11328F08BE083BF86EE81BF87B7826087BF0E946B
S11329008A020E9485008F3F19F00E94B90AF9CF0C
S11329101FBF789481E00E945903811117C08FB7BB
S1132920F89420911B0130911C01232BC1F421E068
S113293030E030931C0120931B018FBFDD9A64E1CA
S113294070E080E090E00E9434020AC09FB7F894DF
S1132950809197019FBF823019F08FB7F8948FBF91
S11329601FB7F8940E9485008F3F09F044C087B7D1
S1132970837069F080B78770E9F781B792B7891BD4
S11329808C3038F082B7853F20F483E003C085E0C3
S113299001C082E097B7987BB9F490917D009B7F4A
S11329A099F49DB1E92FE07496FD0EC02AB190917F
S11329B09A00922B987159F49091740092FD07C07B
S11329C0379904C0E5E003C0E0E001C0E1E095B759
S11329D08E1708F4E82FF0E0E655FF4F8491E92FB5
S11329E0E37CE062E82BE5BF78948895F89485B79A
S11329F08F7D85BFB7CF1FBF0E94B90AB1CF991B86
S1132A0079E004C0991F961708F0961B881F7A95E1
S1132A10C9F780950895AA1BBB1B51E107C0AA1FE3
S1132A20BB1FA617B70710F0A61BB70B881F991F6B
S1132A305A95A9F780959095BC01CD010895EE0FA4
S1132A40FF1F0024001C0BBE0790F691E02D099493
S1132A5069279627692778278727782708950F936A
S1132A60083090F0982F872F762F652F542F432FFF
S1132A70322F22270850F4CF220F331F441F551F33
S1132A80661F771F881F991F0A95B2F70F91089543
S1132A9097FB10F8169400080F93083098F008502C
S1132AA0232F342F452F562F672F782F892F902DC2
S1132AB0F4CF05949795879577956795579547959E
S1132AC0379527950A95AAF70F9108952A193B0976
S1132AD04C095D096E097F09800B910B0895FB0178
S1132AE0DC0104C08D910190801921F441505040C3
S1132AF0C8F7881B990B0895DC0101C06D93415000
S10D2B005040E0F70895F894FFCF69
S1132B0A01FFFFFF220100FFFFFFFF0100009C02FB
S1052B1A0800AD
S9030000FC
